:0400000000EF80F09D
:10000800A440A440A440A440A440A440A440A440C8
:10001800A440A440A440A440A440A440A440A440B8
:10002800A440A440A440A440A440A440A440A440A8
:10003800A440A440A440A440A440A440A440A44098
:10004800A440A440A440A440A440A440A440A44088
:10005800A440A440A440A440A440A440A440A44078
:10006800A440A440A440A440A440A440A440A44068
:10007800A440A440A440A4404200A440A440A440FA
:10008800A440A440A440A440A440A440A440A44048
:10009800A440A440A440A4404200A440A440A440DA
:1000A800A440A440A440A440A440A440A440A44028
:1000B800A440A440A440A440A440A440A440A44018
:1000C800A440A440A440A440A440A440A440A44008
:1000D800A440A440A440A440A440A440A440A440F8
:1000E8004200A440A440A440A440A440A440A4408A
:1000F800A440A440A440A440A440A440A440A440D8
:02010800FF00F6
:10BFFE000000000000000000000000000000000033
:10C00E000000000000000000000000000000000022
:10C01E000000000000000000000000000000000012
:10C02E000000000000000000000000000000000002
:10DFFE0000008E00FFCEE01EBDE012BDE03CBDE095
:10E00E00477EE009A6002706BDE0470820F6393B0B
:10E01E000D0A48656C6C6F2C20576F726C64210D65
:10E02E000A4920616D20363830302E0D0A00B68038
:10E03E0018840127F9B680193936B680188402275C
:10E04E00F932B7801939FFFFFFFFFFFFFFFFFFFF18
:10E05E00FFFF0000000000000000000000000000B4
:10E06E0000000000000000000000000000000000A2
:10E07E000000000000000000000000000000000092
:10E08E000000000000000000000000000000000082
:10E09E000000000000000000000000000000000072
:10FFEE0000000000000000000000E01DE01DE01D0C
:02FFFE00E00021
:020000040001F9
:100000003CEF81F0080E0001B16F000E0401186F83
:100010001969C968000E086F0969C768000E106F7A
:100020001169C8682095C294CA940091BE90C69088
:10003000008BBE8AC69A00950185C6840093018311
:10004000C6822091C280CA900099BE88C69820932B
:10005000C282CA92010E0201D56FA00ED46FD1895F
:10006000D18B0401009FC68E070E0201766F04013A
:10007000009DBE8CC69C260E0201076FD28F1F0EFC
:10008000636F1E0E646F010E656F1D0E676F010EAC
:10009000686F000E0001D56F020ED86F030ED96F86
:1000A000060EDA6F040EDB6F020EDC6F080EDD6FDA
:1000B000200EDE6F800EDF6F000ED76FA20ED66FA0
:1000C000010ED56F020ED86F030ED96F060EDA6FD0
:1000D000040EDB6F010EDC6F040EDD6F100EDE6FA1
:1000E000800EDF6F000ED76FA20ED66F020ED56F97
:1000F000020ED86F030ED96F060EDA6F040EDB6F97
:10010000010EDC6F040EDD6F100EDE6F400EDF6F30
:10011000000ED76FA20ED66F000E046E000E036E97
:10012000FF0E0324F66EBF0E0420F76EF86A000E71
:10013000F822000E0324D96E200E0420DA6E080087
:10014000F5C4DFF4034A042A04BEEAD7200E045C97
:10015000D8A0E6D7000EF86E550E0401596FAA0E0E
:10016000596F5991080E5D6F000E5E6F000E5F6F44
:10017000550E596FAA0E596F5981000E046E000E6C
:10018000036EBE9ABE80E40E00D000D0E82EFCD7ED
:1001900000D000D0BE90BE8AE40E00D000D0E82E81
:1001A000FCD700D000D0034A042A04BEEAD704508A
:1001B00004E10A0E035CD8A0E4D7D68EC284BE90B8
:1001C000BE8ABE8ABE8ABE8ABE8ABE8ABE8ABE9ADF
:1001D000BE800001D4A30AD0C86ACFC4D9F4D150DC
:1001E0001F0B2009DA6EDFC4C0F442D0D4A509D0B9
:1001F000CFC4D9F4D1501F0B2009DA6ED0C4DFF47C
:1002000037D0D4A109D0C86ACFC4F6F4D1C4F7F46A
:100210000800F5C4C0F42CD0CEA21ED0D1C402F583
:10022000CFC401F5000EC86E180E011808E1800E4B
:100230000218D8B4CEA403D0B7C4C0F419D0190E94
:10024000011808E1800E0218D8B4CEA403D0C7C2AA
:10025000C0F40ED0C0680CD0D1C402F5CFC401F5F3
:10026000190E011805E1800E0218D8B4D0C4C9F2E5
:10027000BE90BE8AC868ABD7026A016A0401080E44
:100280005D6F000E5E6F000E5F6F000102EF80F089
:0202900011005B
:020000040020DA
:10000000FF0FFF0FFF0FFF0FFF0FFF0FFF0FFF0F80
:10001000FF0FFF0FFF0FFF0FFF0FFF0FFF0FFF0F70
:10002000FF0FFF0FFF0FFF0FFF0FFF0FFF0FFF0F60
:10003000FF0FFF0FFF0FFF0FFF0FFF0FFF0FFF0F50
:020000040030CA
:100000008C2FFFF79FFFFFFFFFFFFFFFFFFFFFFFAB
:10001000FFFFFFFFFFFFFFFFFFFFFFFFFFFFFFFFF0
:04002000FFFFFFFFE0
:00000001FF
